:1000000012C02BC02AC029C028C015C2B2C225C048
:1000100024C062C122C02FC050C01FC01EC01DC05E
:100020001CC01BC01AC011241FBECFE5D4E0DEBF28
:10003000CDBF10E0A0E6B0E0EAE0F6E002C0059037
:100040000D92AA36B107D9F710E0AAE6B0E001C0D8
:100050001D92A93CB107E1F7AEC0D2CF89B988E9BA
:100060008AB980E08093AB008093AA008093BD00A2
:100070008093BC0008951F920F920FB60F92112427
:100080008F939F93EF93FF939CB1E091AA00EF5F52
:10009000EF73E093AA008091AB00E81709F4C19ACE
:1000A000FF27E659FF4F9083FF91EF919F918F912A
:1000B0000F900FBE0F901F9018951F920F920FB6C2
:1000C0000F9211248F939F93EF93FF939091BC0015
:1000D0008091BD00981769F08091BD008F5F8F708F
:1000E0008093BD00E82FFF27E455FF4F80818CB936
:1000F00001C05598FF91EF919F918F910F900FBE86
:100100000F901F9018959091AA008091AB009817BE
:1001100039F4C19A9091AA008091AB009817C9F365
:100120008091AB008F5F8F738093AB00E82FFF2728
:10013000E659FF4F808199270895282F9091BC00A0
:100140009F5F9F708091BD00981729F4C19A80919C
:10015000BD009817D9F3E92FFF27E455FF4F2083FF
:100160009093BC00559A08958091AA009091AB009D
:10017000891B99278F7390700895CF93C82FF4DF50
:10018000482F91E0891798F08091AB00292F3327F1
:10019000F901E80FF11DEF73F070E659FF4F808110
:1001A0008C1711F4C90105C09F5F491768F780E0FB
:1001B00090E0CF910895CFE5D4E0DEBFCDBFA89504
:1001C00088E190E028E00FB6F894A89581BD0FBEB5
:1001D00021BD3CD01092BF001092BE001092C5000D
:1001E00025D080E090E0FED139DF789485B7806833
:1001F00085BF889585B78F7785BFA89509B600FC20
:10020000F5CFC091BE00D091BF00209779F78DE067
:10021000B4DF882359F3D093C800C093C70084E0AB
:1002200083BF12BE89B7816089BFE0CF81E083BF01
:100230008FEF82BF8CE88EBD1BBC85E090E0D2D1F1
:100240008ABD80E389BF88E087BB0895FF920F9342
:100250001F93CF93DF93FF2400E610E0C0E0D0E0CF
:10026000CE01C0D18F3F29F4F8016081CE01C2D107
:10027000A895F39421960F5F1F4FF9E0FF1580F7C3
:10028000DF91CF911F910F91FF9008958A3010F464
:10029000805D03C0803128F4895C992787FD9095A3
:1002A000089588E590E00895089580338CF08A33AE
:1002B00014F4805305C081345CF087341CF48753F8
:1002C00099270895813624F0873614F48755F8CF9E
:1002D0008FEF90E0089508951F920F920FB60F923E
:1002E00011241F932F933F934F935F936F937F93AB
:1002F0008F939F93AF93BF93EF93FF938091C7002A
:100300009091C8008130910509F459C08130910560
:1003100040F08230910509F45EC0039709F46CC087
:1003200078C08091C5008370D9F4C19AECDE182F93
:10033000BCDF8093C6001D3011F08F3FB1F3C19830
:100340001D3071F489E090E04DD1982F82B7891B60
:1003500082BF83E090E09093C8008093C70059C0AB
:10036000C39A8091C600282F33274091C50043705F
:1003700083E090E0841B910902C0359527958A950A
:10038000E2F720FF09C082E090E09093C8008093DC
:10039000C70087E090E008C081E090E09093C8003B
:1003A0008093C70086E090E01DD1982F82B7891B0B
:1003B00082BF8091C5008F5F8093C5002AC0C3981B
:1003C0001092C8001092C70088E090E00BD1182F5F
:1003D00086E090E00BC0C3981092C8001092C7004E
:1003E00088E090E0FFD0182F87E090E0FBD0181B4A
:1003F00082B7811B82BF0DC089B78E7F89BF81E024
:1004000083BF8FEF82BF1092C8001092C700109276
:10041000C500FF91EF91BF91AF919F918F917F9117
:100420006F915F914F913F912F911F910F900FBE50
:100430000F901F9018951F920F920FB60F921124D4
:100440002F933F934F935F936F937F938F939F93DC
:10045000AF93BF93CF93DF93EF93FF93C091BE0011
:10046000D091BF00C130D10549F0C130D10520F095
:10047000C230D10591F06AC01092C4001DBC1CBCF2
:1004800088B7806188BF82E090E09093BF0080933E
:10049000BE008EB580648EBD59C021E030E030933F
:1004A000BF002093BE008EB58F7B8EBDC9019AD050
:1004B000982F86B5891710F42CE31BC0CE0192D07B
:1004C000982F86B5981710F020E313C083E090E0D2
:1004D00089D0982F86B5891710F42DE30AC084E0DF
:1004E00090E080D0982F86B5981710F021E301C0D6
:1004F0002EE39091C400892F8370E82FFF27E254E8
:10050000FF4F2283892F8F5F8093C4008370F1F4A3
:10051000482F582F23E030E0E0ECF0E08191813368
:1005200051F481E090E0022E02C0880F991F0A94D6
:10053000E2F7482B03C0803309F04FEF5F5F215093
:100540003040543058F3842FA1DEF7DDFF91EF9156
:10055000DF91CF91BF91AF919F918F917F916F91DB
:100560005F914F913F912F910F900FBE0F901F9071
:1005700018951F920F920FB60F9211242F933F934D
:100580004F935F936F937F938F939F93AF93BF939B
:10059000EF93FF938091BE009091BF00892B89F06B
:1005A0001092BF001092BE008EB58F7B8EBD8091E1
:1005B000C400837011F088E5C0DD8DE0BEDD8AE007
:1005C000BCDDFF91EF91BF91AF919F918F917F9192
:1005D0006F915F914F913F912F910F900FBE0F90B0
:1005E0001F901895E199FECF9FBB8EBBE09A99278B
:1005F0008DB30895E199FECF9FBB8EBB6DBB0FB647
:0A060000F894E29AE19A0FBE089503
:0A060A000305232745631436593217
:00000001FF
