:100000000AC022C021C012C2B1C21EC060C12AC033
:100010004BC01AC019C011241FBECFEDCDBF10E0D8
:10002000A0E6B0E0E4E0F6E003C0C89531960D929A
:10003000AA36B107D1F710E0AAE6B0E001C01D92E0
:10004000A93CB107E1F7B0C0DBCF89B988E98AB92B
:1000500080E08093AB008093AA008093BD008093E2
:10006000BC0008951F920F920FB60F9211248F9328
:100070009F93EF93FF939CB1E091AA00EF5FEF7322
:10008000E093AA008091AB00E81709F4C59AFF2716
:10009000E659FF4F9083FF91EF919F918F910F90C1
:1000A0000FBE0F901F9018951F920F920FB60F92D0
:1000B00011248F939F93EF93FF939091BC008091B5
:1000C000BD00981769F08091BD008F5F8F7080939D
:1000D000BD00E82FFF27E455FF4F80818CB901C098
:1000E0005598FF91EF919F918F910F900FBE0F90B8
:1000F0001F9018959091AA008091AB00981739F441
:10010000C49A9091AA008091AB009817C9F380918E
:10011000AB008F5F8F738093AB00E82FFF27E6590A
:10012000FF4F808199270895282F9091BC009F5FF1
:100130009F708091BD00981729F4C69A8091BD00E8
:100140009817D9F3E92FFF27E455FF4F20839093A9
:10015000BC00559A08958091AA009091AB00891B2C
:1001600099278F7390700895CF93C82FF4DF482F8D
:1001700091E08917A8F08091AB00292F3327F32F46
:10018000E22FE80FF11DEF73F070E659FF4F808109
:100190008C1719F4932F822F05C09F5F491758F7CA
:1001A00080E090E0CF910895CFEDD0E0DEBFCDBFED
:1001B000A89588E190E028E00FB6F894A89581BD55
:1001C0000FBE21BD3BD01092BF001092BE00109216
:1001D000C50025D080E090E002D237DF789485B763
:1001E000806285BF889585B78F7D85BFA89509B644
:1001F00001FCF5CFC091BE00D091BF00209779F7E8
:100200008DE0B2DF882359F3D093C800C093C700B4
:1002100084E083BF12BE89B7826089BFE0CF81E0EE
:1002200083BF8FEF82BF8CE88EBD1BBC85E090E062
:10023000D6D18ABD88E489BF17BA0895FF920F937B
:100240001F93CF93DF93FF2400E610E0C0E0D0E0DF
:100250008C2F9D2FC4D18F3F39F4F12FE02F608177
:100260008C2F9D2FC4D1A895F39421960F5F1F4F1B
:10027000F9E0FF1568F7DF91CF911F910F91FF9083
:1002800008958A3010F4805D03C0803128F4895CC1
:10029000992787FD9095089588E590E00895089541
:1002A00080338CF08A3314F4805305C081345CF0C1
:1002B00087341CF4875399270895813624F08736B4
:1002C00014F48755F8CF8FEF90E0089508951F92AA
:1002D0000F920FB60F9211241F932F933F934F93BA
:1002E0005F936F937F938F939F93AF93BF93EF939E
:1002F000FF938091C7009091C8008130910509F467
:1003000059C08130910540F08230910509F45EC0FA
:10031000039709F46CC078C08091C5008370D9F44C
:10032000C79AE8DE182FBCDF8093C6001D3011F09D
:100330008F3FB1F3C7981D3071F489E090E04FD141
:10034000982F82B7891B82BF83E090E09093C8000A
:100350008093C70059C0C29A8091C600282F3327C6
:100360004091C500437083E090E0841B910902C076
:10037000359527958A95E2F720FF09C082E090E045
:100380009093C8008093C70087E090E008C081E0A8
:1003900090E09093C8008093C70086E090E01FD162
:1003A000982F82B7891B82BF8091C5008F5F809391
:1003B000C5002AC0C2981092C8001092C70088E0F9
:1003C00090E00DD1182F86E090E00BC0C2981092FB
:1003D000C8001092C70088E090E001D1182F87E094
:1003E00090E0FDD0181B82B7811B82BF0DC089B77A
:1003F0008D7F89BF81E083BF8FEF82BF1092C800DD
:100400001092C7001092C500FF91EF91BF91AF917C
:100410009F918F917F916F915F914F913F912F911C
:100420001F910F900FBE0F901F9018951F920F9263
:100430000FB60F9211242F933F934F935F936F93B7
:100440007F938F939F93AF93BF93CF93DF93EF935C
:10045000FF93C091BE00D091BF00C130D10549F0DB
:10046000C130D10520F0C230D10591F06CC010929E
:10047000C4001DBC1CBC88B7806488BF82E090E0CB
:100480009093BF008093BE008EB580648EBD5BC02C
:1004900021E030E03093BF002093BE008EB58F7B0B
:1004A0008EBD932F822F9BD0982F84B5891710F47F
:1004B0002CE31CC08C2F9D2F92D0982F84B59817B9
:1004C00010F020E313C083E090E089D0982F84B52A
:1004D000891710F42DE30AC084E090E080D0982FB3
:1004E00084B5981710F021E301C02EE39091C40069
:1004F000892F8370E82FFF27E254FF4F2283892F33
:100500008F5F8093C4008370F1F4482F582F23E04D
:1005100030E0E0ECF0E08191813351F481E090E053
:10052000022E02C0880F991F0A94E2F7482B03C0DD
:10053000803309F04FEF5F5F21503040543058F363
:10054000842F9FDEF1DDFF91EF91DF91CF91BF917D
:10055000AF919F918F917F916F915F914F913F915B
:100560002F910F900FBE0F901F9018951F920F9212
:100570000FB60F9211242F933F934F935F936F9376
:100580007F938F939F93AF93BF93EF93FF9380914C
:10059000BE009091BF00892B89F01092BF0010928D
:1005A000BE008EB58F7B8EBD8091C400837011F02C
:1005B00088E5BADD8DE0B8DD8AE0B6DDFF91EF9128
:1005C000BF91AF919F918F917F916F915F914F916B
:1005D0003F912F910F900FBE0F901F901895E199AA
:1005E000FECF9FBB8EBBE09A99278DB30895E1990A
:1005F000FECF9FBB8EBB6DBB0FB6F894E29AE19A1B
:040600000FBE08958C
:0A060400030523274563143659321D
:00000001FF
